:100000000C94D4000C94FC000C94FC000C94FC00A8
:100010000C94FC000C94FC000C94FC000C94FC0070
:100020000C94FC000C94FC000C9434050C94A30577
:100030000C94FC000C94FC000C94FC000C94FC0050
:100040000C94FC000C94FC000C94FC000C94FC0040
:100050000C94FC000C94FC000C94FC000C94D50750
:100060000C94FC000C94FC000C94FC000C94FC0020
:100070000C94FC000C94FC000C94FC000C94FC0010
:100080000C94FC000C941F080C94FC000C94FC00D5
:100090000C94FC000C94FC000C94FC000C94FC00F0
:1000A0000C94FC000C94FC000C94FC00000000007C
:1000B000240027002A002D00300000000000250049
:1000C00028002B002E0031000000000200090F0064
:1000D00000030401000C000000000000000000000C
:1000E00000000000000000080B00020202000009EE
:1000F0000400000102020000052400100105240193
:1001000001010424020605240600010705810310ED
:10011000004009040100020A000000070502024035
:1001200000000705830240000004030904120100D7
:1001300002EF020140412337800001010203014127
:10014000726475696E6F204C4C430041726475692E
:100150006E6F204D6963726F00000000002300265F
:100160000029002C002F00040404040403040502E9
:100170000202020403020202020606060606060442
:10018000040202020404040802011040804010200E
:10019000408040800802040180402010020110804D
:1001A000102040402000D20811241FBECFEFDAE01B
:1001B000DEBFCDBF23E0A6E2B2E001C01D92A43DA8
:1001C000B207E1F712E0A0E0B1E0E8EEFDE102C025
:1001D00005900D92A632B107D9F710E0C4EDD0E03A
:1001E00004C02197FE010E94EC0EC33DD107C9F760
:1001F0000E94FE080C94F20E0C940000A1EBB2E0F9
:1002000011968C93119790E0FC01EA57FE4FE49110
:100210001496EC931497FC01E959FE4FE491F0E039
:10022000EE0FFF1FE75AFE4F8591949113969C9312
:100230008E93129708950F931F93CF93DF93E091BE
:10024000A903F091AA0340916002808510E048174D
:1002500008F064C0142F117000915F0201114FC0AB
:10026000842F90E0880F991FE80FF91F0184F28511
:10027000E02D2CEE3FEF112311F024E130E0C0918E
:100280005D02D0915E022C0F3D1FC90163E470E056
:100290000E94D80EE617F70760F0C90168E270E027
:1002A0000E94D80E6F5F7F4F81E090E06E177F074E
:1002B00010F52C0F3D1FC90163E470E00E94D80EB9
:1002C000E617F70750F0C90168E270E00E94D80E07
:1002D0006F5F7F4F6E177F0760F42C0F3D1FC901C2
:1002E00063E470E00E94D80EE617F707E8F41FEF0A
:1002F00015C082E090E090935C0280935B020F5FF8
:1003000000935F0280915B0290915C0208171906CE
:1003100028F010925F024F5F40936002812FDF91BF
:10032000CF911F910F910895C90168E270E00E947A
:10033000D80E6F5F7F4F6E177F07C8F283E090E0A3
:10034000DACFFC0180915A02882311F13FB7F8946B
:1003500082E08093E9002091F200822F90E018164D
:10036000190614F481E090E0882339F0289A44E6D5
:10037000409359024091F1004083222339F02091AB
:10038000F200211103C02BE62093E8003FBF08953F
:100390008FEF9FEF08952FB7F89483E08093E900E3
:1003A0009091E800892F807295FF04C09091F2002F
:1003B00080E4891B2FBF08958091510281110DC0E7
:1003C00082E080934D0284E080934E0210925002AE
:1003D00010924F0281E0809351028DE492E00895E3
:1003E00040914702509148022091450230914602C7
:1003F00042175307B4F49091E8009570E1F390919F
:10040000E80092FD19C08093F1008091470290911D
:10041000480201968F739927892B19F48EEF8093E8
:10042000E80080914702909148020196909348021B
:100430008093470281E0089580E00895EF92FF9253
:100440000F931F93CF93DF93F82E192FE62E042FCF
:1004500081E0860F880F0E94F00183E00E94F00186
:10046000CF2DD12FEC0EFD2EF11CCE15DF05B9F0EE
:1004700007FF13C0FE0184910E94F001182F80E055
:100480000E94F001812321968111EFCFDF91CF915E
:100490001F910F91FF90EF9008958881EDCF81E03B
:1004A000F5CFDF92EF92FF920F931F93CF93DF93DD
:1004B000D82E8A01EB017B01E40EF51ECE15DF0577
:1004C00059F0D7FE12C0FE0184910E94F0012196DE
:1004D0008111F4CF0FEF1FEFC801DF91CF911F9172
:1004E0000F91FF90EF90DF9008958881EECF0F93EA
:1004F0001F93CF93DF931F92CDB7DEB782E089833E
:1005000042E450E067EE70E080E80E9451020E94F1
:10051000DC01DC0112960D911C910115110589F089
:10052000D801ED91FC910280F381E02DBE016F5F57
:100530007F4FC801099597FD04C0F801008511851A
:10054000ECCF89810F90DF91CF911F910F9108958A
:10055000615030F02091F100FC0120830196F8CF2A
:10056000289A84E6809359020895CF93DF931F92CF
:10057000CDB7DEB76983DC01ED91FC910280F38198
:10058000E02D41E050E0BE016F5F7F4F09950F9075
:10059000DF91CF91089583E08093E9008091F2008C
:1005A000882319F08AE38093E80008950E94CB0124
:1005B00090E00895CF93DF931F92CDB7DEB7FC0193
:1005C0008485958597FD08C02FEF3FEF35872487F9
:1005D0000F90DF91CF910895CE0101960E94A10165
:1005E000019719F4898190E0F3CF8FEF9FEFF0CF5F
:1005F0000F931F93CF93DF931F92CDB7DEB78C017C
:10060000FC018485958597FF0BC0CE0101960E9461
:10061000A101019771F4898190E0F80195878487A1
:10062000F801848595850F90DF91CF911F910F91EF
:1006300008958FEF9FEFF1CFFC018485958597FD9D
:100640000BC09FB7F89482E08093E9008091F2009C
:100650009FBF90E0019608959FB7F89482E0809341
:10066000E9008091F2009FBF90E00895282F30E0CC
:10067000F901E853FF4F9491F901EA57FE4F849135
:1006800029593E4FF9012491222309F430C09923BE
:10069000E9F091509F30D0F4E92FF0E0EE5AFC4F92
:1006A0000C94EC0E80038403610378037C036603DF
:1006B0006603660387038D03910395039B0366031B
:1006C0009F03909180009F7790938000E22FF0E04D
:1006D000EE0FFF1FE654FF4FA591B4919FB7F8941A
:1006E000EC91611132C080958E238C939FBF089549
:1006F000909180009F7DE8CF90918000977FE4CF1C
:1007000094B59F7794BDE2CF94B59F7DFBCF909138
:1007100090009F7790939000D9CF909190009F7D0B
:10072000F9CF90919000977FF5CF9091C0009F777F
:100730009093C000CBCF9091C0009F7DF9CF909156
:10074000C200977F9093C200C1CF8E2BCECFCF93A4
:10075000DF9390E0FC01EA57FE4F249189599E4FA8
:10076000FC0184918823D1F090E0880F991FFC014F
:10077000E455FF4FA591B491FC01E654FF4FC5919C
:10078000D49161110EC09FB7F8948C91E22FE0953F
:100790008E238C932881E223E8839FBFDF91CF9142
:1007A00008958FB7F894EC91E22BEC938FBFF6CFBE
:1007B0003FB7F89480912B0290912C02A0912D02CA
:1007C000B0912E0226B5A89B05C02F3F19F00196C7
:1007D000A11DB11D3FBFBA2FA92F982F8827BC019B
:1007E000CD01620F711D811D911D42E0660F771FC3
:1007F000881F991F4A95D1F70895CF92DF92EF9203
:10080000FF920E94D8036B017C010E94D8036C19EF
:100810007D098E099F09683E734081059105A8F303
:10082000FF90EF90DF90CF9008958F929F92AF92BC
:10083000BF92CF92DF92EF92FF920F931F93CF93CD
:10084000DF936C017B018A0180910B01882309F4FD
:1008500058C080915A02882309F453C080914B02FA
:1008600080FF05C08091E00082608093E000E80195
:10087000B12C8AEFA82E93E0892E2AE3922E20979E
:1008800011F4BB20B9F10E94CB01811106C0AA94DA
:10089000AA20B9F10E94FD03F2CF8C171D0611F0BA
:1008A0000CF08C2F9FB7F8948092E9002091E8001B
:1008B00025FD02C09FBFE3CF282F30E0C21BD30B22
:1008C000F701815020F041914093F100FACFE20E00
:1008D000F31EBB2021F09092E800B12CEBCF809169
:1008E000E80085FDE7CF9092E800BB24B394209701
:1008F00009F3F3CF5D9A84E680934C02101611063B
:100900003CF081E090E0F6019383828310E000E008
:10091000C801DF91CF911F910F91FF90EF90DF9071
:10092000CF90BF90AF909F908F900895FC01019061
:100930000020E9F73197AF01481B590BBC0181E654
:1009400092E00C941504CF93DF930E949604EC017F
:1009500085E291E00E9496048C0F9D1FDF91CF915C
:1009600008957F928F929F92AF92BF92CF92DF9223
:10097000EF92FF920F931F93CF93DF93782EEA01AC
:10098000E091A903F091AA033F968B010C5E1F4FE3
:1009900043E4C42ED12CC801B6010E94D80E5B01DD
:1009A00058E2E52EF12CC801B7010E94D80E8B0148
:1009B0000F5F1F4F6497CE01B6010E94D80E4B0106
:1009C000CE01B7010E94D80EEB01219624513109C6
:1009D000C901B6010E94D80E6B01C901B7010E947E
:1009E000D80E6F5F7F4F20E030E0A901A0E080814A
:1009F00091818A159B0570F10817190758F18281BA
:100A000093818815990518F1C817D90728F1220F85
:100A1000331F441F551F21603496AF5F7A12E7CF12
:100A20002093A5033093A6034093A7035093A803F4
:100A300081E0DF91CF911F910F91FF90EF90DF90B8
:100A4000CF90BF90AF909F908F907F9008958C151E
:100A50009D0510F480E0EDCF68177907D8F3220FD9
:100A6000331F441F551FD8CF1F920F920FB60F92FE
:100A700011248F939F938091E1009091E100937FE7
:100A80009093E10083FF0FC01092E90091E09093F2
:100A9000EB001092EC0092E39093ED0010925A025A
:100AA00098E09093F00082FF22C093E09093E900D9
:100AB0009091F200992319F09AE39093E8009091B5
:100AC0004C02992341F090914C02915090934C022A
:100AD000911101C05D9890915902992341F0909134
:100AE0005902915090935902911101C0289884FFA6
:100AF00018C08091E2008E7E81608093E200809138
:100B0000E1008F7E8093E10080914B028E7E8061B8
:100B100080934B029F918F910F900FBE0F901F906B
:100B2000189580FFF7CF8091E2008E7E80618093E0
:100B3000E2008091E1008E7E8093E10080914B0283
:100B40008E7E8160E5CF1F920F920FB60F92112417
:100B5000CF92DF92EF92FF920F931F932F933F93C9
:100B60004F935F936F937F938F939F93AF93BF93B5
:100B7000EF93FF93CF93DF93CDB7DEB76C97DEBFD4
:100B8000CDBF1092E9008091E80083FF25C068E0A6
:100B9000CE0145960E94A80282EF8093E8008D89DD
:100BA00087FF39C09091E80090FFFCCF982F907696
:100BB00009F034C19E894F89588D2F89F88C911185
:100BC00031C0803861F580914A028093F100109223
:100BD000F1008EEF8093E8006C960FB6F894DEBFBC
:100BE0000FBECDBFDF91CF91FF91EF91BF91AF913C
:100BF0009F918F917F916F915F914F913F912F9135
:100C00001F910F91FF90EF90DF90CF900F900FBE4C
:100C10000F901F9018959EEF9093E800C7CF109209
:100C2000F100D5CF913059F48111D3CF4130510526
:100C300081F680914A028D7F80934A02CACF933019
:100C400049F48111C6CF4130510519F680914A020D
:100C50008260F2CF953041F48091E80080FFFCCFB4
:100C600020682093E300B5CF963009F0A9C00B8D22
:100C70001C8D22E01092E900109248021092470267
:100C8000F2122EC010924602109245020E94770284
:100C90001F8299E09983FA8291E09E8390EA988777
:100CA0009AEF99872091470230914802275F3F4F82
:100CB0003C832B838D831092E9001092480210929E
:100CC0004702109346020093450249E050E0BE01FE
:100CD0006F5F7F4F80E00E9451020E94770279CFC0
:100CE00010934602009345020E94DC01DC0112963B
:100CF0000D911C910115110509F451C1D801ED9117
:100D0000FC910480F581E02DBE016B5E7F4FC80130
:100D10000995009709F03EC1F80100851185EACFD9
:100D2000F3E0FF120EC08F89882309F440C082309F
:100D300061F440E86DE08BE491E00E941E028111B5
:100D400048CF81E28093EB0047CF813029F440E81F
:100D50006BE08FE391E0F1CF833099F70E94DC01E3
:100D6000DC011296ED90FC908E010F5F1F4F680121
:100D7000E114F10479F0D701ED91FC910680F7813F
:100D8000E02DB801C7010995080F111DF701E08496
:100D9000F184EECFD8011C92F60101900020E9F712
:100DA0003197BF016C197D0940E0C601C6CF69E2E9
:100DB00071E0FB01449150E080E80E94510209CFAC
:100DC000973009F4BECF983021F481E08093F10090
:100DD00000CF993009F0FDCE837009F0B2CFEDE07D
:100DE000F1E081E031E096E32191222371F08093DC
:100DF000E9003093EB00DF0111972C912093EC0078
:100E00009093ED008F5F873079F78EE78093EA004B
:100E10001092EA008F8980935A02DBCE8B8D9C8DD5
:100E20001092E900109248021092470290934602F5
:100E300080934502898D811192C08E899D89913A56
:100E400049F4813209F07DCF47E050E064E071E081
:100E500080E0B3CF913209F074CF833269F48F8987
:100E6000988DB0E0A0E08093000190930101A093E1
:100E70000201B0930301ADCE803269F48091E800A5
:100E800082FFFCCF67E084E091E00E94A8028BEF34
:100E90008093E8009ECE823209F09BCE8F898093AA
:100EA0000B01EEEFFFE7859194918B3F9C4D51F143
:100EB000E0E0F8E08091040190910501A091060125
:100EC000B0910701803B9440A105B105F1F48091F8
:100ED0000B0180FD1AC0EE3F8AE0F80789F587E72D
:100EE00097E791838083809160008093490288E135
:100EF0009BE00FB6F894A895809360000FBE909386
:100F0000600067CEEEEFFAE0D5CF80819181873720
:100F1000974709F05ECEA895809160008861809324
:100F200060008091490280936000EE3F2AE0F20762
:100F300089F08091FE0A9091FF0A9183808349CEC7
:100F4000808191818737980751F29093FF0A8093AF
:100F5000FE0AC5CF1092FF0A1092FE0A3ACE0E94F6
:100F6000DC01DC0112960D911C910115110509F4AB
:100F7000E8CED801ED91FC910190F081E02DBE0109
:100F80006B5E7F4FC8010995811123CEF801008562
:100F90001185EBCF181619060CF41BCED2CEF1E05A
:100FA000FF12BECE6DE271E004CF1F920F920FB61A
:100FB0000F9211242F933F938F939F93AF93BF93DF
:100FC0008091270290912802A0912902B0912A02D3
:100FD0003091260223E0230F2D3758F50196A11DED
:100FE000B11D209326028093270290932802A0939C
:100FF0002902B0932A0280912B0290912C02A09199
:101000002D02B0912E020196A11DB11D80932B02DD
:1010100090932C02A0932D02B0932E02BF91AF911A
:101020009F918F913F912F910F900FBE0F901F9026
:10103000189526E8230F0296A11DB11DD2CF1F924D
:101040000F920FB60F9211242F933F934F935F93FC
:101050006F937F938F939F93AF93BF93EF93FF9380
:10106000E091B302F091B40290818091B50298238F
:101070002091B6023091B7022F3F320731F02F5F37
:101080003F4F3093B7022093B6028091B102811195
:1010900035C0911116C02091B6023091B7022536A5
:1010A000310558F01092B8023093BB022093BA0277
:1010B00081E08093B9028093B1021092B70210923E
:1010C000B6028091B703882341F08091B603911155
:1010D00061C061E0811161C0479AFF91EF91BF91BA
:1010E000AF919F918F917F916F915F914F913F91C0
:1010F0002F910F900FBE0F901F9018958091B10205
:101100008130A1F49923E9F2E091B9028E0F809326
:10111000B902F0E0EE0FFF1FEF54FD4F2091B60231
:101120003091B7023287218782E0C5CF8091B1022A
:10113000823039F5911119C0E091B90281E0E037B0
:1011400020F08093B80283E0B6CF8E0F8093B9026F
:10115000F0E0EE0FFF1FEF54FD4F2091B6023091EB
:10116000B7023287218781E0A6CF2091B602309165
:10117000B7022536310508F4A4CF83E08093B1028D
:10118000A0CF8091B102833009F09BCF992309F45D
:1011900094CF97CF882321F060E00E9436039DCF43
:1011A00047989BCFCF93DF93E1E6F2E01382128260
:1011B00088EE93E0A0E0B0E084839583A683B783B4
:1011C00087E191E0918380838FEF9FEF95878487FC
:1011D000C1EBD2E0D093C803C093C70380E00E9464
:1011E000FE00E6EBF3E010821182D093AA03C093D5
:1011F000A90385E0DF91CF910C94FE00CF93DF939C
:10120000CDB7DEB7A1970FB6F894DEBF0FBECDBF46
:10121000789484B5826084BD84B5816084BD85B5D1
:10122000826085BD85B5816085BD80916E008160DD
:1012300080936E0010928100809181008260809383
:101240008100809181008160809381008091800085
:1012500081608093800080919100826080939100F2
:1012600080919100816080939100809190008160D5
:10127000809390008091C10084608093C100809130
:10128000C10082608093C1008091C1008160809321
:10129000C1008091C30081608093C3008091C00031
:1012A00082608093C0008091C20081608093C20000
:1012B00080917A00846080937A0080917A008260C5
:1012C00080937A0080917A00816080937A00809187
:1012D0007A00806880937A0010925A0210924A0233
:1012E00010924B028091D70081608093D70080EAF2
:1012F0008093D80089B5806189BD89B5826089BD38
:1013000009B400FEFDCF0E94FD038091D8008F7CC0
:1013100080618093D8008091E000807F8093E0001E
:101320008091E1008E7E8093E1008DE08093E20069
:10133000559A209A5D9828988FEF9FEF90936E02B0
:1013400080936D02F8941092900089E08093910050
:1013500080E293E0909399008093980090939B0093
:1013600080939A00109295001092940084E08093EC
:1013700071008091B102833011F41092B10278941F
:1013800060E08091B2020E94A7038091B60391E0D1
:101390009093B70361E0882309F47CC00E94A703FF
:1013A000B1E1AB2EB12CCC24CA94DC2C760105E043
:1013B000802E912C8091B102833009F09DC48091E0
:1013C0002F02811107C088E291E00E94A30481E00E
:1013D00080932F028AEB92E0909341028093400227
:1013E0008091B90290E09093430280934202209151
:1013F000B802222321F01092B8021092B902209173
:10140000B8022093440210923802109239021092CE
:101410003A0210923B0220E82093A4032091BC02E0
:101420003091BD02265831092C35310590F48430B5
:10143000910591F58091BE029091BF0281974897E6
:1014400040F48091C0029091C1020897089708F477
:101450005FC040914202509143024A31510508F465
:10146000EEC0E0914002F0914102808191810A97A3
:1014700008F0CEC010923C02C0923802D0923902DD
:10148000E0923A02F0923B0281E08093A40383E170
:1014900090E04DC08DE082CF84349105D1F68091EB
:1014A000BE029091BF02825491098F9790F620E37B
:1014B00032E040E956E060E372E080E20E94B1046D
:1014C000882339F2E0914002F0914102EA57FF4F40
:1014D000808191810897089708F0BBCF8091A50380
:1014E0009091A603A091A703B091A803809338021E
:1014F00090933902A0933A02B0933B0280E280932A
:101500003C0288E090E090933502809334020FC053
:1015100010923C02C0923802D0923902E0923A0214
:10152000F0923B0281E88093A40388E090E09093DE
:101530009B0380939A038091380290913902A09185
:101540003A02B0913B028F3F9F4FAF4FBF4F81F4A4
:101550008091300290913102A0913202B091330219
:101560008093380290933902A0933A02B0933B02E1
:10157000009138021091390220913A0230913B02D9
:1015800019A2CE018196B901A8014F70552766278F
:10159000772754E036952795179507955A95D1F7F3
:1015A0004A300CF08DC3405DFC014293CF01011520
:1015B00011052105310539F7EF2B11F00E94960432
:1015C00085E291E00E949604E0913402F0913502A8
:1015D0003397E731F10508F0BEC3EF50F54F0C9497
:1015E000EC0E9F0E8A0E900E960EAB0E620E9C0EA7
:1015F000AB0EAB0EAB0EAB0EAB0E840E870E930E86
:101600008D0EAB0EAB0EAB0EA20EA50EA80E990E54
:101610008281938184974A9790F423E030E060E0E0
:10162000412C512C3201848195810897089738F418
:10163000868197818231910590F18097D0F181E088
:1016400080936002E9E7F3E0F0935E02E0935D02CD
:1016500010925F020E941B01813009F09FC0412C53
:10166000512C320110E0E091A903F091AA0390857A
:1016700080916002891708F041C00E941B01082F69
:101680000E941B01011130C0813009F087C0440C59
:10169000551C661C771C689440F81F5FE4CF8930A6
:1016A000910568F2419758F6440C551C661C771C4E
:1016B00006C0440C551C661C771C689440F86F5F8C
:1016C0002E5F3F4F34962417350708F4ACCF609354
:1016D0003C02409238025092390260923A02709273
:1016E0003B0283E190E00FCF013009F057C0811138
:1016F00055C0440C551C661C771CCFCF812F90E041
:101700009093A3038093A2034092A5035092A60353
:101710006092A7037092A803842D8F7390E090933A
:101720009F0380939E03920146E0369527954A9544
:10173000E1F72F71332730939D0320939C0392018F
:1017400022273071232B31F4805C9F4F90939F03AD
:1017500080939E0380E853FC88E88093A4038185EE
:101760009285833E984028F48091A4038160809301
:10177000A4038FE090E090939B0380939A031093CF
:101780003C02409238025092390260923A027092C2
:101790003B029093350280933402CDCEE091A903B1
:1017A000F091AA038385948588974D9708F046C0E9
:1017B000858596850C970B9708F040C083E0809351
:1017C00060028CEB91E090935E0280935D02109238
:1017D0005F020E941B01813089F50E941B01182FB6
:1017E00081112CC0412C512C3201E091A903F091C0
:1017F000AA03908580916002891708F071C00E9449
:101800001B01382E1330B1F00E941B01082F13303A
:1018100021F40E941B01081311C091E0391256C037
:1018200001110CC0440C551C661C771C689440F8D0
:101830001F5FDBCF0E941B01381631F380914202FB
:10184000909143028236910508F493C0E0914002E2
:10185000F091410282819381C397859708F089C0F6
:10186000848195814A97439708F083C020EB31E04B
:1018700040E155E060EB71E08CE20E94B104882306
:1018800009F477C080E380933C028091A503909196
:10189000A603A091A703B091A80380933802909368
:1018A0003902A0933A02B0933B0282E090E2909317
:1018B000370280933602E9E0F0E0F0933502E093DE
:1018C0003402F0939B03E0939A0335CE3110B6CFE8
:1018D000013009F0B3CF440C551C661C771CA8CF0F
:1018E000812F90E09093A3038093A2034092A503DD
:1018F0005092A6036092A7037092A803242D30E0B3
:10190000852D1432F8F480E88093A40330939F036C
:1019100020939E03852D90E090939D0380939C03DC
:1019200060FE03C088E88093A40381859285833795
:101930009A4028F48091A40381608093A40380E1FD
:1019400090E019CF90E99093A40357FE03C098E963
:101950009093A40330939F0320939E038F7790E08E
:1019600090939D0380939C037092A1036092A003C7
:10197000DCCF8091420290914302CC97E1F5E09157
:101980004002F091410282819381865891098D3500
:10199000910588F584819581CE978C9760F526E234
:1019A00032E04CE256E064EF71E08CE10E94B10459
:1019B000882309F1E0914002F0914102EA58FF4F7B
:1019C0008081918107970897B0F48091A503909149
:1019D000A603A091A703B091A80380933802909327
:1019E0003902A0933A02B0933B028CE180933C020F
:1019F00086E090E088CD2091420230914302E09150
:101A00004002F0914102828193812232310589F4B2
:101A1000AC01485051094730510558F4DF01AE5B25
:101A2000BF4F4D915C91485051094730510508F422
:101A30005DC08D5791098735910508F469C0E09123
:101A40004002F091410282819381825491098F97E3
:101A500098F480914202909143028430910509F0FC
:101A600091C0848195818197489730F486819781D0
:101A70000897089708F4B5C0E091A903F091AA036C
:101A80008085823209F0BFC0E0914002F0914102AE
:101A9000828193810497059708F0B5C08481958170
:101AA0000B970A9708F0AFC02CE033E04CE157E009
:101AB00064E071E08FE00E94B104882309F4A3C0C0
:101AC0008091A5039091A603A091A703B091A803CC
:101AD0008093380290933902A0933A02B0933B026C
:101AE0008FE080933C02E3E0F0E0E7CE10923C020E
:101AF000C0923802D0923902E0923A02F0923B0250
:101B000081E08093A40390929B0380929A0313CD6B
:101B10002432310508F493CF84819581CE978C9738
:101B200008F08DCF2EE032E04AE256E06EE072E03F
:101B300080E10E94B104882309F481CFE091400242
:101B4000F0914102EA5BFF4F8081918108970797EE
:101B500008F075CF8091A5039091A603A091A703EB
:101B6000B091A8038093380290933902A0933A026F
:101B7000B0933B0280E180933C02909235028092C8
:101B80003402C1CF8434910508F476CF84819581E5
:101B9000815491098F9708F06FCF29E232E04BE72B
:101BA00056E069E272E080E20E94B104882309F401
:101BB00063CF8091A5039091A603A091A703B09154
:101BC000A8038093380290933902A0933A02B0930D
:101BD0003B0280E280933C02B0923502A092340234
:101BE0000DC010923C02C0923802D0923902E092AD
:101BF0003A02F0923B0281E08093A403B0929B03EF
:101C0000A0929A0398CC2090420230904302F6E0D2
:101C10002F16310408F46AC0E0914002F0914102AD
:101C2000329603E010E025EC3DE94CE151E88AE012
:101C3000682E8481958161917191689E2001699ED1
:101C4000500C1124DB01AA0FBB1FAA0FBB1FAA0F48
:101C5000BB1F712C4A165B0688F0669ED001679EFA
:101C6000B00D112473E0880F991F7A95E1F762E0B7
:101C7000762EA817B90710F07724739463E971E002
:101C800080E091E00E94AE0E9B01AC0127250F5F22
:101C90001F4F2016310669F620933802309339021F
:101CA00040933A0250933B0280E280933C021092B0
:101CB00035021092340210929B0310929A033BCC8F
:101CC000495C72CC84EC91E00E94A30480913802BC
:101CD00090913902A0913A02B0913B028093300278
:101CE00090933102A0933202B09333028091B102FB
:101CF000833011F41092B10280E090E0892B09F456
:101D000059CB0E94000056CB88EC91E0DDCF8CECE3
:101D100091E0DACF80ED91E0D7CF85ED91E0D4CF9F
:101D20008BED91E0D1CF8FED91E0CECF87EE91E0BA
:101D3000CBCF8AEE91E0C8CF82EF91E0C5CF8CEF98
:101D400091E0C2CF82E092E0BFCF8BE092E0BCCFC7
:101D500083E192E0B9CF8DE192E0B6CFDB018F93C2
:101D60009F930E94BE0EBF91AF91A29F800D911DC7
:101D7000A39F900DB29F900D112408950E94C90E4B
:101D8000A59F900DB49F900DA49F800D911D1124CF
:101D90000895A29FB001B39FC001A39F700D811D44
:101DA0001124911DB29F700D811D1124911D089564
:101DB000AA1BBB1B51E107C0AA1FBB1FA617B70771
:101DC00010F0A61BB70B881F991F5A95A9F780958D
:101DD0009095BC01CD010895EE0FFF1F0590F49181
:081DE000E02D0994F894FFCFF7
:101DE800FFFFFFFF00E100000000000000C180814C
:101DF80000000000000000B5021504D602CB021C4A
:101E080003DA02F8020D0A005468652066756E63ED
:101E180074696F6E206465636F64652826726573E4
:101E2800756C747329292069732064657072656301
:101E38006174656420616E64206D6179206E6F74D1
:101E480020776F726B2061732065787065637465A5
:101E58006421204A75737420757365206465636F07
:101E68006465282920776974686F7574206120700B
:101E78006172616D6574657220616E642049725289
:101E8800656365697665722E6465636F6465644928
:101E980052446174612E3C6669656C646E616D655F
:101EA8003E202E004E454300524335005243360033
:101EB80044495348005348415250004A564300533E
:101EC800414D53554E47004C47005748594E5445CD
:101ED800520050414E41534F4E49430044454E4FE6
:101EE8004E00424F534557415645004C45474F5FBA
:101EF8005046004D414749515545535400554E4BA6
:061F08004E4F574E000091
:00000001FF
