:100000000C94D4000C94FC000C94FC000C94FC00A8
:100010000C94FC000C94FC000C94FC000C94FC0070
:100020000C94FC000C94FC000C9425060C94940693
:100030000C94FC000C94FC000C94FC000C94FC0050
:100040000C94FC000C94FC000C94FC000C94FC0040
:100050000C94FC000C94FC000C94FC000C94C6085E
:100060000C94FC000C94FC000C94FC000C94FC0020
:100070000C94FC000C94FC000C94FC000C94FC0010
:100080000C94FC000C9410090C94FC000C94FC00E3
:100090000C94FC000C94FC000C94FC000C94FC00F0
:1000A0000C94FC000C94FC000C94FC00000000007C
:1000B000240027002A002D00300000000000250049
:1000C00028002B002E0031000000000200090F0064
:1000D00000030401000C000000000000000000000C
:1000E00000000000000000080B00020202000009EE
:1000F0000400000102020000052400100105240193
:1001000001010424020605240600010705810310ED
:10011000004009040100020A000000070502024035
:1001200000000705830240000004030904120100D7
:1001300002EF020140412337800001010203014127
:10014000726475696E6F204C4C430041726475692E
:100150006E6F204D6963726F00000000002300265F
:100160000029002C002F00040404040403040502E9
:100170000202020403020202020606060606060442
:10018000040202020404040802011040804010200E
:10019000408040800802040180402010020110804D
:1001A000102040402000050A11241FBECFEFDAE0E6
:1001B000DEBFCDBF22E0A0E4B1E001C01D92A83DAA
:1001C000B207E1F711E0A0E0B1E0E0E0F7E202C041
:1001D00005900D92A034B107D9F710E0C4EDD0E03E
:1001E00004C02197FE010E945F13C33DD107C9F7E8
:1001F0000E94310A0C947E130C940000A5EBB1E030
:1002000011968C93119790E0FC01EA57FE4FE49110
:100210001496EC931497FC01E959FE4FE491F0E039
:10022000EE0FFF1FE75AFE4F8591949113969C9312
:100230008E93129708950F931F93CF93DF93E091BE
:10024000AD02F091AE0240916401808510E0481744
:1002500008F064C0142F11700091630101114FC0A8
:10026000842F90E0880F991FE80FF91F0184F28511
:10027000E02D2CEE3FEF112311F024E130E0C0918E
:100280006101D09162012C0F3D1FC90163E470E050
:100290000E944B13E617F70760F0C90168E270E0AF
:1002A0000E944B136F5F7F4F81E090E06E177F07D6
:1002B00010F52C0F3D1FC90163E470E00E944B1341
:1002C000E617F70750F0C90168E270E00E944B138F
:1002D0006F5F7F4F6E177F0760F42C0F3D1FC901C2
:1002E00063E470E00E944B13E617F707E8F41FEF92
:1002F00015C082E090E09093600180935F010F5FF2
:100300000093630180915F019091600108171906C5
:1003100028F0109263014F5F40936401812FDF91B9
:10032000CF911F910F910895C90168E270E00E947A
:100330004B136F5F7F4F6E177F07C8F283E090E02B
:10034000DACFFC0180915E01882311F13FB7F89468
:1003500082E08093E9002091F200822F90E018164D
:10036000190614F481E090E0882339F0289A44E6D5
:1003700040935D014091F1004083222339F02091A8
:10038000F200211103C02BE62093E8003FBF08953F
:100390008FEF9FEF08952FB7F89483E08093E900E3
:1003A0009091E800892F807295FF04C09091F2002F
:1003B00080E4891B2FBF08958091550181110DC0E4
:1003C00082E08093510184E08093520110925401A5
:1003D0001092530181E08093550181E591E00895E9
:1003E00040914B0150914C012091490130914A01BB
:1003F00042175307B4F49091E8009570E1F390919F
:10040000E80092FD19C08093F10080914B0190911A
:100410004C0101968F739927892B19F48EEF8093E5
:10042000E80080914B0190914C01019690934C0112
:1004300080934B0181E0089580E00895EF92FF9250
:100440000F931F93CF93DF93F82E192FE62E042FCF
:1004500081E0860F880F0E94F00183E00E94F00186
:10046000CF2DD12FEC0EFD2EF11CCE15DF05B9F0EE
:1004700007FF13C0FE0184910E94F001182F80E055
:100480000E94F001812321968111EFCFDF91CF915E
:100490001F910F91FF90EF9008958881EDCF81E03B
:1004A000F5CFDF92EF92FF920F931F93CF93DF93DD
:1004B000D82E8A01EB017B01E40EF51ECE15DF0577
:1004C00059F0D7FE12C0FE0184910E94F0012196DE
:1004D0008111F4CF0FEF1FEFC801DF91CF911F9172
:1004E0000F91FF90EF90DF9008958881EECF0F93EA
:1004F0001F93CF93DF931F92CDB7DEB782E089833E
:1005000042E450E067EE70E080E80E9451020E94F1
:10051000DC01DC0112960D911C910115110589F089
:10052000D801ED91FC910280F381E02DBE016F5F57
:100530007F4FC801099597FD04C0F801008511851A
:10054000ECCF89810F90DF91CF911F910F9108958A
:10055000615030F02091F100FC0120830196F8CF2A
:10056000289A84E680935D010895CF93DF931F92CC
:10057000CDB7DEB76983DC01ED91FC910280F38198
:10058000E02D41E050E0BE016F5F7F4F09950F9075
:10059000DF91CF91089583E08093E9008091F2008C
:1005A000882319F08AE38093E80008950E94CB0124
:1005B00090E00895CF93DF931F92CDB7DEB7FC0193
:1005C0008485958597FD08C02FEF3FEF35872487F9
:1005D0000F90DF91CF910895CE0101960E94A10165
:1005E000019719F4898190E0F3CF8FEF9FEFF0CF5F
:1005F0000F931F93CF93DF931F92CDB7DEB78C017C
:10060000FC018485958597FF0BC0CE0101960E9461
:10061000A101019771F4898190E0F80195878487A1
:10062000F801848595850F90DF91CF911F910F91EF
:1006300008958FEF9FEFF1CFFC018485958597FD9D
:100640000BC09FB7F89482E08093E9008091F2009C
:100650009FBF90E0019608959FB7F89482E0809341
:10066000E9008091F2009FBF90E00895282F30E0CC
:10067000F901E853FF4F9491F901EA57FE4F849135
:1006800029593E4FF9012491222309F430C09923BE
:10069000E9F091509F30D0F4E92FF0E0EE5AFC4F92
:1006A0000C945F1380038403610378037C03660367
:1006B0006603660387038D03910395039B0366031B
:1006C0009F03909180009F7790938000E22FF0E04D
:1006D000EE0FFF1FE654FF4FA591B4919FB7F8941A
:1006E000EC91611132C080958E238C939FBF089549
:1006F000909180009F7DE8CF90918000977FE4CF1C
:1007000094B59F7794BDE2CF94B59F7DFBCF909138
:1007100090009F7790939000D9CF909190009F7D0B
:10072000F9CF90919000977FF5CF9091C0009F777F
:100730009093C000CBCF9091C0009F7DF9CF909156
:10074000C200977F9093C200C1CF8E2BCECFCF93A4
:10075000DF9390E0FC01EA57FE4F249189599E4FA8
:10076000FC0184918823D1F090E0880F991FFC014F
:10077000E455FF4FA591B491FC01E654FF4FC5919C
:10078000D49161110EC09FB7F8948C91E22FE0953F
:100790008E238C932881E223E8839FBFDF91CF9142
:1007A00008958FB7F894EC91E22BEC938FBFF6CFBE
:1007B0003FB7F8948091410190914201A09143018B
:1007C000B091440126B5A89B05C02F3F19F00196B2
:1007D000A11DB11D3FBFBA2FA92F982F8827BC019B
:1007E000CD01620F711D811D911D42E0660F771FC3
:1007F000881F991F4A95D1F70895CF92DF92EF9203
:10080000FF920E94D8036B017C010E94D8036C19EF
:100810007D098E099F09683E734081059105A8F303
:10082000FF90EF90DF90CF9008958F929F92AF92BC
:10083000BF92CF92DF92EF92FF920F931F93CF93CD
:10084000DF936C017B018A0180910B01882309F4FD
:1008500058C080915E01882309F453C080914F01F4
:1008600080FF05C08091E00082608093E000E80195
:10087000B12C8AEFA82E93E0892E2AE3922E20979E
:1008800011F4BB20B9F10E94CB01811106C0AA94DA
:10089000AA20B9F10E94FD03F2CF8C171D0611F0BA
:1008A0000CF08C2F9FB7F8948092E9002091E8001B
:1008B00025FD02C09FBFE3CF282F30E0C21BD30B22
:1008C000F701815020F041914093F100FACFE20E00
:1008D000F31EBB2021F09092E800B12CEBCF809169
:1008E000E80085FDE7CF9092E800BB24B394209701
:1008F00009F3F3CF5D9A84E6809350011016110638
:100900003CF081E090E0F6019383828310E000E008
:10091000C801DF91CF911F910F91FF90EF90DF9071
:10092000CF90BF90AF909F908F900895FC019B0156
:1009300024513109C90163E470E00E944B13E617AA
:10094000F70758F0C90168E270E00E944B136F5F2F
:100950007F4F81E06E177F0708F480E00895FC0167
:100960009B012C5E3F4FC90163E470E00E944B1372
:10097000E617F70758F0C90168E270E00E944B13D0
:100980006F5F7F4F81E06E177F0708F480E0089566
:100990002F923F924F925F926F927F928F929F928F
:1009A000AF92BF92CF92DF92EF92FF920F931F937D
:1009B000CF93DF9300D01F92CDB7DEB789832A0192
:1009C0001901862F90E0880F991F09966091AD025A
:1009D0007091AE02860F971F9B838A83EE20A1F150
:1009E000912CC12CD12C76019981991609F477C0EC
:1009F000B201EA81FB81808191810E94AF0488234A
:100A000009F457C0EA81FB81A280B380B101C5011E
:100A10000E949604882369F0CC0CDD1CEE1CFF1CA0
:100A20006894C0F88A819B8104969B838A839394FF
:100A3000DBCFB801C5010E9496048823D1F1CC0C0C
:100A4000DD1CEE1CFF1CEECF812C912C54018394F5
:100A5000C12CD12C76019981992309F440C0B201AF
:100A6000EA81FB81808191810E94AF04882309F192
:100A7000EA81FB8162807380B101C3010E94960408
:100A8000882389F0C828D928EA28FB288A819B81F5
:100A900004969B838A83880C991CAA1CBB1C998191
:100AA00091509983D8CFB801C3010E949604811157
:100AB000EDCF0F900F900F90DF91CF911F910F917D
:100AC000FF90EF90DF90CF90BF90AF909F908F906E
:100AD0007F906F905F904F903F902F900895C092BD
:100AE000A902D092AA02E092AB02F092AC0281E09D
:100AF000E0CFCF93DF93FC0101900020E9F731971D
:100B0000AF01481B590BBC0185E691E00E9415041A
:100B1000EC0142E050E065E271E085E691E00E9480
:100B200015048C0F9D1FDF91CF9108953F924F9236
:100B30005F926F927F928F929F92AF92BF92CF926D
:100B4000DF92EF92FF920F931F93CF93DF9300D02A
:100B500000D000D0CDB7DEB7382E5A8349833C830E
:100B60002B8338010091AD021091AE02862F90E0E8
:100B7000880F991F0996800F911F9E838D83812C6A
:100B8000912C54018394C12CD12C7601332009F48B
:100B900052C0ED81FE814080518069817A81C2011D
:100BA0000E94AF04882341F1C828D928EA28FB28ED
:100BB0002D813E812E5F3F4FF801808590E0880FA8
:100BC000991F0996800F911F2817390768F4B30100
:100BD000ED81FE81828193810E949604882399F0A1
:100BE0002D813E812C5F3F4F880C991CAA1CBB1C99
:100BF0003A943E832D83CACF6B817C81C2010E94CF
:100C0000AF048111D5CF26960FB6F894DEBF0FBE84
:100C1000CDBFDF91CF911F910F91FF90EF90DF90AB
:100C2000CF90BF90AF909F908F907F906F905F908C
:100C30004F903F900895C092A902D092AA02E092EC
:100C4000AB02F092AC0281E0DECF1F920F920FB6A2
:100C50000F9211248F939F938091E1009091E10076
:100C6000937F9093E10083FF0FC01092E90091E021
:100C70009093EB001092EC0092E39093ED001092B1
:100C80005E0198E09093F00082FF22C093E0909381
:100C9000E9009091F200992319F09AE39093E8000B
:100CA00090915001992341F090915001915090936F
:100CB0005001911101C05D9890915D01992341F01F
:100CC00090915D01915090935D01911101C0289820
:100CD00084FF18C08091E2008E7E81608093E200E4
:100CE0008091E1008F7E8093E10080914F018E7EA4
:100CF000806180934F019F918F910F900FBE0F9055
:100D00001F90189580FFF7CF8091E2008E7E806162
:100D10008093E2008091E1008E7E8093E1008091DB
:100D20004F018E7E8160E5CF1F920F920FB60F921A
:100D30001124CF92DF92EF92FF920F931F932F9384
:100D40003F934F935F936F937F938F939F93AF9353
:100D5000BF93EF93FF93CF93DF93CDB7DEB76C973D
:100D6000DEBFCDBF1092E9008091E80083FF25C06F
:100D700068E0CE0145960E94A80282EF8093E800C9
:100D80008D8987FF39C09091E80090FFFCCF982FA4
:100D9000907609F034C19E894F89588D2F89F88C3F
:100DA000911131C0803861F580914E018093F1003E
:100DB0001092F1008EEF8093E8006C960FB6F894D5
:100DC000DEBF0FBECDBFDF91CF91FF91EF91BF91FD
:100DD000AF919F918F917F916F915F914F913F91D3
:100DE0002F911F910F91FF90EF90DF90CF900F9078
:100DF0000FBE0F901F9018959EEF9093E800C7CFFD
:100E00001092F100D5CF913059F48111D3CF4130F8
:100E1000510581F680914E018D7F80934E01CACF9E
:100E2000933049F48111C6CF4130510519F68091B4
:100E30004E018260F2CF953041F48091E80080FF4E
:100E4000FCCF20682093E300B5CF963009F0A9C00D
:100E50000B8D1C8D22E01092E90010924C01109233
:100E60004B01F2122EC010924A01109249010E94C9
:100E700077021F8299E09983FA8291E09E8390EA3B
:100E800098879AEF998720914B0130914C01275F09
:100E90003F4F3C832B838D831092E90010924C01CD
:100EA00010924B0110934A010093490149E050E030
:100EB000BE016F5F7F4F80E00E9451020E94770267
:100EC00079CF10934A01009349010E94DC01DC01B3
:100ED00012960D911C910115110509F451C1D8010B
:100EE000ED91FC910480F581E02DBE016B5E7F4F9A
:100EF000C8010995009709F03EC1F80100851185E8
:100F0000EACFF3E0FF120EC08F89882309F440C0B6
:100F1000823061F440E86DE08BE491E00E941E02B3
:100F2000811148CF81E28093EB0047CF813029F4D3
:100F300040E86BE08FE391E0F1CF833099F70E94B6
:100F4000DC01DC011296ED90FC908E010F5F1F4FCB
:100F50006801E114F10479F0D701ED91FC9106806C
:100F6000F781E02DB801C7010995080F111DF701A0
:100F7000E084F184EECFD8011C92F60101900020AC
:100F8000E9F73197BF016C197D0940E0C601C6CF72
:100F900069E271E0FB01449150E080E80E94510257
:100FA00009CF973009F4BECF983021F481E08093C7
:100FB000F10000CF993009F0FDCE837009F0B2CF77
:100FC000EDE0F1E081E031E096E32191222371F040
:100FD0008093E9003093EB00DF0111972C9120936F
:100FE000EC009093ED008F5F873079F78EE7809368
:100FF000EA001092EA008F8980935E01DBCE8B8D30
:101000009C8D1092E90010924C0110924B0190932C
:101010004A0180934901898D811192C08E899D89F1
:10102000913A49F4813209F07DCF47E050E064E025
:1010300071E080E0B3CF913209F074CF833269F46C
:101040008F89988DB0E0A0E080930001909301011A
:10105000A0930201B0930301ADCE803269F4809178
:10106000E80082FFFCCF67E084E091E00E94A802E4
:101070008BEF8093E8009ECE823209F09BCE8F8961
:1010800080930B01EEEFFFE7859194918B3F9C4D90
:1010900051F1E0E0F8E08091040190910501A09108
:1010A0000601B0910701803B9440A105B105F1F420
:1010B00080910B0180FD1AC0EE3F8AE0F80789F5A8
:1010C00087E797E7918380838091600080934D014B
:1010D00088E19BE00FB6F894A895809360000FBE5E
:1010E0009093600067CEEEEFFAE0D5CF80819181DA
:1010F0008737974709F05ECEA89580916000886198
:101100008093600080914D0180936000EE3F2AE063
:10111000F20789F08091FE0A9091FF0A9183808303
:1011200049CE808191818737980751F29093FF0AC9
:101130008093FE0AC5CF1092FF0A1092FE0A3ACEA3
:101140000E94DC01DC0112960D911C910115110524
:1011500009F4E8CED801ED91FC910190F081E02DE9
:10116000BE016B5E7F4FC8010995811123CEF80146
:1011700000851185EBCF181619060CF41BCED2CEC4
:10118000F1E0FF12BECE6DE271E004CF1F920F922C
:101190000FB60F9211242F933F938F939F93AF938A
:1011A000BF938091450190914601A0914701B09174
:1011B00048013091400123E0230F2D3758F5019667
:1011C000A11DB11D209340018093450190934601DC
:1011D000A0934701B0934801809141019091420151
:1011E000A0914301B09144010196A11DB11D8093CE
:1011F000410190934201A0934301B0934401BF91F8
:10120000AF919F918F913F912F910F900FBE0F90B3
:101210001F90189526E8230F0296A11DB11DD2CF6D
:101220001F920F920FB60F9211242F933F934F935B
:101230005F936F937F938F939F93AF93BF93EF933E
:10124000FF93E091B701F091B80190818091B901CD
:1012500098232091BA013091BB012F3F320731F022
:101260002F5F3F4F3093BB012093BA018091B501AE
:10127000811135C0911116C02091BA013091BB0186
:101280002536310558F01092BC013093BF012093F0
:10129000BE0181E08093BD018093B5011092BB0136
:1012A0001092BA018091BB02882341F08091BA026A
:1012B000911161C061E0811161C0479AFF91EF9186
:1012C000BF91AF919F918F917F916F915F914F915E
:1012D0003F912F910F900FBE0F901F901895809106
:1012E000B5018130A1F49923E9F2E091BD018E0F9F
:1012F0008093BD01F0E0EE0FFF1FEB54FE4F2091F5
:10130000BA013091BB013287218782E0C5CF80913D
:10131000B501823039F5911119C0E091BD0181E02C
:10132000E03720F08093BC0183E0B6CF8E0F80932E
:10133000BD01F0E0EE0FFF1FEB54FE4F2091BA010C
:101340003091BB013287218781E0A6CF2091BA017D
:101350003091BB012536310508F4A4CF83E080939A
:10136000B501A0CF8091B501833009F09BCF9923BF
:1013700009F494CF97CF882321F060E00E943603D0
:101380009DCF47989BCFEF92FF920F931F93CF93E0
:10139000DF93EC01F62F8A01790190E080E030E0E4
:1013A000E0E0DE01AE0FB11D2C91222341F0320F9F
:1013B0002E9F800D911D11241C92FE1315C0332306
:1013C00099F0532F5695850F911D632F70E00E9461
:1013D0004B13DE01A60FB11D3C93D8013C91311196
:1013E0000EC06C9390E080E0EF5FFE17D0F681E0D6
:1013F000DF91CF911F910F91FF90EF900895D7014A
:101400003C91332371F380E0F3CFCF93DF93E5E694
:10141000F1E01382128288EE93E0A0E0B0E08483D2
:101420009583A683B78387E191E0918380838FEFD3
:101430009FEF95878487C5EBD1E0D093CC02C09312
:10144000CB0280E00E94FE00EAEBF2E01082118203
:10145000D093AE02C093AD0285E0DF91CF910C94A2
:10146000FE00CF93DF93CDB7DEB7E8970FB6F894C1
:10147000DEBF0FBECDBF789484B5826084BD84B5D5
:10148000816084BD85B5826085BD85B5816085BD7F
:1014900080916E00816080936E0010928100809137
:1014A00081008260809381008091810081608093BF
:1014B0008100809180008160809380008091910004
:1014C000826080939100809191008160809391006F
:1014D000809190008160809390008091C100846031
:1014E0008093C1008091C10082608093C10080918F
:1014F000C10081608093C1008091C30081608093AE
:10150000C3008091C00082608093C0008091C200BF
:1015100081608093C20080917A00846080937A0019
:1015200080917A00826080937A0080917A00816055
:1015300080937A0080917A00806880937A0010927C
:101540005E0110924E0110924F018091D700816090
:101550008093D70080EA8093D80089B5806189BDE7
:1015600089B5826089BD09B400FEFDCF0E94FD03EC
:101570008091D8008F7C80618093D8008091E000BA
:10158000807F8093E0008091E1008E7E8093E10077
:101590008DE08093E200559A209A5D9828988FEF0D
:1015A0009FEF9093720180937101F89410929000D4
:1015B00089E08093910080E293E09093990080937A
:1015C000980090939B0080939A001092950010923F
:1015D000940084E0809371008091B501833011F410
:1015E0001092B501789460E08091B6010E94A70343
:1015F0008091BA0291E09093BB0261E0882309F4E4
:1016000071C00E94A7039E012F5F3F4F29016AE02E
:10161000662E70E2272E312C8091B501833009F0BF
:10162000F0C08091BC01882309F45EC01092BC0117
:101630001092BD0180E48093A80210929F02109244
:101640009E021092A3021092A2021092A102109286
:10165000A0021092A9021092AA021092AB0210925C
:10166000AC021092A7021092A6028091A80286FDF9
:10167000A4C0E091AD02F091AE022085822F8F7B55
:10168000843009F0E9C083859485865891098C35AA
:10169000910508F0E1C085859685243009F04BC09E
:1016A0008197489708F0D8C0878590890897089750
:1016B00008F0D2C081E08093A8028091B10290919D
:1016C000B2029093A1028093A0028091B502909102
:1016D000B6029093A3028093A2028091AF029091F0
:1016E000B002EAC18DE08DCF1092A80280919E02D7
:1016F00090919F029093B0028093AF028091A202DA
:101700009091A302B0E0A0E08093B5029093B6025E
:10171000A093B702B093B8028091A0029091A10269
:10172000B0E0A0E08093B1029093B202A093B30224
:10173000B093B40282CF825491098F9708F08CC085
:10174000E12C00E312E020E936E040E352E063E000
:1017500080E20E94C804882309F47EC0E091AD02B3
:10176000F091AE02E157FF4F808191810897089771
:1017700008F072C02091A9029091AA026091AB0278
:101780008091AC02462F50E05093A3024093A202F6
:10179000422F592F4E3E37E85307D9F525E130E067
:1017A00030939F0220939E0290E09093A102809339
:1017B000A0023092A7022092A6028091A9029091E5
:1017C000AA02A091AB02B091AC022FB7F89440915D
:1017D00045015091460160914701709148012FBF2A
:1017E0008D35E2E49E07A105B10509F00FC788E237
:1017F00091E00E9479058091B501833011F4109237
:10180000B50180E090E0892B09F406CF0E9400002A
:10181000FECE9095291310C030E03093A1022093A2
:10182000A002982F909569130CC088E090E09093E7
:101830009F0280939E02BDCF5093A1024093A002CD
:10184000F0CF24E130E030939F0220939E0260931A
:10185000A2028093A302ADCFE091AD02F091AE025F
:101860008085843609F0B3C083859485C3978597B6
:1018700008F0ADC0858596854A97439708F0A7C0C4
:10188000E12C00EB11E020E135E040EB51E063E0BA
:1018900080E10E94C804882309F499C0F090A9024D
:1018A000CF2CD090AA0249E0A42EB12C52E0C5164C
:1018B00050E2D50619F13DE0A32EB12C8AEAC816F4
:1018C0008AE5D806D9F02CE0A22EB12C94E5C916F1
:1018D00092E3D90699F09BE0A92EB12CA3E0CA1699
:1018E000A1E0DA0659F05EE0A52EB12CB3E2CB16EA
:1018F000BBECDB0619F08AE0A82EB12CE12C00EB42
:1019000011E020E135E040EB51E063E280E20E942B
:10191000C804882309F45BC0FD248091A90290913A
:10192000AA02A091AB02B091AC029C0104E03695F2
:1019300027950A95E1F73093A1022093A0022A2F60
:1019400030E03093A3022093A202382F3A273927A0
:101950002F2D22952F702F252F70482F4F70241771
:1019600019F024E02093A802EAE0AE16B10479F061
:101970002091A80220612093A8024091A4025091D6
:10198000A502C42AD52AD092A502C092A4023B1770
:1019900029F08091A80284608093A802E091AD02B2
:1019A000F091AE028185928588329A4028F4809128
:1019B000A80281608093A802B0929F02A0929E022A
:1019C00080E390E09093A7028093A602F6CEE09188
:1019D000AD02F091AE028085803209F075C0EE2430
:1019E000E3940CE013E02CE137E044E051E061E0E7
:1019F0008FE00E94C804882309F466C0E091AD021C
:101A0000F091AE02DF01A95BBF4F8D919C910497CD
:101A1000059708F059C080E88093A802C090A902F9
:101A2000D090AA02E090AB02F090AC024C2D437033
:101A3000D701C60112E0B695A795979587951A9597
:101A4000D1F79093A0021092A1029C01332730930A
:101A5000A3022093A202218532852536344088F5E1
:101A60002091B9022F5F2093B902C0FE11C032E865
:101A70003093A8023091B5028095381719F086E8A6
:101A80008093A802832F90E09093A3028093A202F8
:101A9000223028F08091A80281608093A8028FE014
:101AA00090E09093A7028093A602415082E190E0DB
:101AB000423010F083E090E090939F0280939E026A
:101AC0007CCE1092B902EBCFE091AD02F091AE0264
:101AD0008385948584974A9708F055C020852A31DC
:101AE00029F02A3219F0203209F04DC085859685FB
:101AF0000897089708F047C030E0C901019797FDA3
:101B0000C9019595879508E512E028E532E040EB9C
:101B100054E063E00E9496058823A9F18091A90210
:101B20009091AA02A091AB02B091AC02282F2F771E
:101B3000E7E0B695A79597958795EA95D1F7E09157
:101B4000AD02F091AE02418552854438534018F4FD
:101B500031E03093A80230E03093A3022093A20238
:101B60009093A1028093A002208530E0C9010197E3
:101B700097FDC901959587959093A7028093A6023A
:101B800083E190E099CF81E08093640189E793E05D
:101B90009093620180936101109263010E941B0186
:101BA000813009F067C0C12CD12C760110E0E091A2
:101BB000AD02F091AE029085809164018917E0F446
:101BC0000E941B01082F0E941B0101110BC08130D4
:101BD00009F050C0CC0CDD1CEE1CFF1C6894C0F852
:101BE0001F5FE5CF013009F045C0811143C0CC0C27
:101BF000DD1CEE1CFF1CF4CF812F90E09093A70218
:101C00008093A602C092A902D092AA02E092AB02EF
:101C1000F092AC028C2D8F7390E09093A30280938E
:101C2000A202960146E0369527954A95E1F72F7175
:101C300033273093A1022093A0029601222730710E
:101C4000232B31F4805C9F4F9093A3028093A202D8
:101C500080E8D3FC88E88093A80281859285833E42
:101C6000984028F48091A80281608093A8028FE0B8
:101C700090E022CFE091AD02F091AE028385948591
:101C800088974D9708F046C0858596850C970B97E9
:101C900008F040C083E0809364018CEB91E0909366
:101CA000620180936101109263010E941B018130E7
:101CB00089F50E941B01182F81112CC0C12CD12C39
:101CC0007601E091AD02F091AE02908580916401C1
:101CD000891708F071C00E941B01B82E1330B1F0B3
:101CE0000E941B01082F133021F40E941B010813CE
:101CF00011C0B1E0BB1256C001110CC0CC0CDD1CF0
:101D0000EE1CFF1C6894C0F81F5FDBCF0E941B0114
:101D1000B81631F3E091AD02F091AE0220852C337C
:101D200011F0243051F4838594858638910508F4A8
:101D30008CC0833E910508F4A5C0E091AD02F091FE
:101D4000AE028085843209F40AC1823209F035C1BD
:101D5000818592858C3E9C4508F02FCD83859485A6
:101D60000897079708F029CDE55BFF4F80819181A7
:101D70000897079708F021CD81E08093A802809111
:101D8000B1029091B2029093A1028093A00280913F
:101D9000B5029091B6029093A3028093A20285E0CF
:101DA00090E08ACEB110B6CF013009F0B3CFCC0CA1
:101DB000DD1CEE1CFF1CA8CF812F90E09093A702A2
:101DC0008093A602C092A902D092AA02E092AB022E
:101DD000F092AC022C2D30E08D2D1432F8F480E816
:101DE0008093A8023093A3022093A2028D2D90E04D
:101DF0009093A1028093A002E0FE03C088E8809344
:101E0000A8028185928583379A4028F48091A802A0
:101E100081608093A80280E190E04ECE90E990939B
:101E2000A802D7FE03C098E99093A8023093A302BA
:101E30002093A2028F7790E09093A1028093A0025A
:101E4000F092A502E092A402DCCF8D32910508F455
:101E500074CF6CE175E2B7E0CB2ED12C8D349105B7
:101E600008F06BCF85859685243091F44D97469781
:101E700008F063CF878590890797089708F05DCFB2
:101E800081E819CC68E670E1A6E0CA2ED12CEACF31
:101E90000E949604882309F450CFEE24E39406E2CE
:101EA00012E02CE236E044EF51E063E08CE10E9466
:101EB000C804882309F441CFE091AD02F091AE024D
:101EC000E158FF4F808191810797089708F035CF3F
:101ED00080E88093A8028091A9029091AA02A09123
:101EE000AB02B091AC028C019D0144E03695279580
:101EF000179507954A95D1F7B8011093A30200935F
:101F0000A2028C019D0154E13695279517950795FE
:101F10005A95D1F71093A1020093A00244E050E03B
:101F200020E0362F3F70230F14E0769567951A95C1
:101F3000E1F741505109A9F782278F709927AA2705
:101F4000BB27892B8A2B8B2B19F084E88093A8025E
:101F5000D0929F02C0929E028CE190E033CD8385A7
:101F600094858D5791098735910538F58585968536
:101F7000CE978C9710F5E12C0EE012E02AE236E0C5
:101F80004EE052E063E080E10E94C8048823A9F09B
:101F90008091A9022091AA0230E03093A3022093FD
:101FA000A20290E09093A1028093A00280E190E0D1
:101FB0009093A7028093A602F2CEE091AD02F09139
:101FC000AE028085982F9F7D943419F0863009F0F9
:101FD0008DC023853485225431092F32310508F014
:101FE00085C025853685215431092F32310508F009
:101FF0007DC08630B1F481E08093A8028091B10267
:102000009091B2029093A1028093A0028091B502B8
:102010009091B6029093A3028093A20281E190E096
:102020004BCDE12C09E212E02BE736E049E252E029
:1020300063E08436B9F580E10E94C804882309F47E
:1020400055C08091A9029091AA029093A102809319
:10205000A0022BE736E049E252E063E080E20E9412
:10206000C804882309F442C09091A9023091AA02C1
:102070002091AB028091AC022095821731F09095AF
:10208000931719F094E09093A802982F832F9093C0
:10209000A3028093A20280E390E09093A702809332
:1020A000A602BCCF80E20E94C8048823F9F0809188
:1020B000AB023091AC022091A9029091AA02209328
:1020C000A0029093A102932F909589130AC090E0EB
:1020D0009093A3028093A2023092A7022092A602BC
:1020E0009DCF8093A2023093A302F6CFE091AD0280
:1020F000F091AE02838594852085243459F50B97A1
:102100000A9740F5858596858A974E9718F5EE24AF
:10211000E3940EEE12E026E638E04EEE52E063E085
:1021200080E20E94C8048823A9F0E091AD02F091FA
:10213000AE02E157FF4F808191810B970A9750F4CF
:1021400080E88093A8023092A7022092A60289E13B
:1021500090E0B2CCE091AD02F091AE022085838593
:1021600094850297049708F062C0243209F05FC09A
:10217000858596850F970C9708F059C0EE24E39457
:1021800007E011E029E232E04EE950E063E080E14F
:102190000E94C804882309F44AC0E091AD02F0917E
:1021A000AE02DF01A15BBF4F8D919C910297049716
:1021B000F0F580E88093A8029091A9028091AA028C
:1021C000292F382F482F42954F708F70A4E03695F5
:1021D0002795AA95E1F72F70392F3F709FE094273C
:1021E00098279227391719F094E89093A8026185EF
:1021F0007285683F714128F49091A8029260909393
:10220000A8024093A0021092A10250E1859FC00154
:102210001124822B9093A3028093A20287E190E085
:1022200090939F0280939E0280E190E0CBCBE0915F
:10223000AD02F091AE0220858385948540970D977D
:10224000B8F52432A9F5858596854597409780F5A0
:10225000E12C07EA15E024ED31E046E152E063E0CD
:1022600080E10E94C804882319F1E091AD02F09149
:10227000AE02DF01A15BBF4F8D919C91089707973C
:10228000B8F48091A9029091AA0298279F3F81F407
:10229000218532852431354018F491E09093A802CD
:1022A00090E09093A3028093A20286E190E0B8CFE1
:1022B000E090AD02F090AE02D70118968C91803775
:1022C00009F056C06701F701E452FF4FF8AFEFABDA
:1022D00020E030E040E010E000E0912C812C712CF7
:1022E000D6011B96ED91FC911C971D96AD90BC906C
:1022F000C501BF010E944B13DB01EA0DFB1D719765
:102300003E97C8F5512F602F792D882D972D01E02C
:102310000E946513E32FF42F152F062F972E882E7A
:10232000792E129708F4216084E0C80ED11CAFA961
:10233000B8ADAC15BD05A1F688E190E090939F0281
:1023400080939E0287E390E09093A7028093A60279
:1023500080E18093A8022093A402E093A502F09369
:10236000A9025093AA026093AB027093AC0225CAF3
:10237000843108F4E4C082E3F20111928A95E9F70E
:10238000D70118962C912250330B60E044E0842F43
:1023900090E0821793079CF4880F991FF701E80FCC
:1023A000F91F8185823348F4F201E80FF11D908115
:1023B0009F5F9083681708F4682F4E5FE8CF1EAACE
:1023C0001DAA9E012B5C3F4FAE014A5C5F4FC201CC
:1023D0000E94C309882309F4B2C082E3F20111927A
:1023E0008A95E9F7A091AD02B091AE0218962C91B2
:1023F00018972250330B60E043E0842F90E082175F
:1024000093079CF4880F991FFD01E80FF91F818540
:10241000823348F4F201E80FF11D90819F5F9083B1
:10242000681708F4682F4E5FE8CF1CAA1BAA9E010C
:102430002D5C3F4FAE014C5C5F4FC2010E94C3094F
:10244000E091AD02F091AE02F084F6948F2D90E011
:102450009C01225031093093A7022093A6020397D2
:1024600045E0969587954A95E1F7D82E8DA981117B
:1024700035C08BA9882309F462C0FA94FA9423E04A
:10248000C22EE12C32E3B32E0EA90B9D8001112444
:102490002CA92B9D900111244BA94B9DA001112427
:1024A0008F2DF0E2FF1508F480E26C2D0E94960556
:1024B000882309F444C020E4C20EE39430EEF30E06
:1024C000DE1410F78CA99BA9892798278927909358
:1024D000A5028093A40282E090E0EECAFA94FA94F6
:1024E00083E0B82EC12C92E3A92E0EA90A9D80018B
:1024F00011242DA92A9D900111244CA94A9DA001C7
:1025000011248F2D90E29F1508F480E2E12C6B2DB1
:102510000E94C804882399F0A0E4BA0EC394B0EED8
:10252000FB0EDC1410F78EA99DA98927982789270F
:102530009093A5028093A40281E090E0BDCA00912F
:10254000AD021091AE02D8011896EC91E63008F475
:1025500034C9FF24F39425EC3DE94CE151E8F0E067
:102560008F2D90E0BC016E5F7F4F6E177F07ECF5FB
:10257000660F771FD801A60FB71F19966D917C9132
:10258000880F991FD801A80FB91F19968D919C919A
:10259000669E6001679ED00C1124DC01AA0FBB1F50
:1025A000AA0FBB1FAA0FBB1FE12CCA16DB0690F0B7
:1025B000689ED001699EB00D1124CB0163E0880FA5
:1025C000991F6A95E1F7EE24E394A817B90710F470
:1025D00082E0E82E63E971E080E091E00E9421133F
:1025E0009B01AC012E25F394BBCF2093A90230931D
:1025F000AA024093AB025093AC023092A702209201
:10260000A60210929F0210929E02D7C88D3DF0E460
:102610009F07A105B10519F481E391E0EAC8853966
:1026200023E49207A105B10519F487E391E0E1C81D
:1026300085359044A105B10509F0DDC88CE391E032
:10264000D8C8DB018F939F930E943113BF91AF9144
:10265000A29F800D911DA39F900DB29F900D1124FC
:1026600008950E943C13A59F900DB49F900DA49FC8
:10267000800D911D11240895A29FB001B39FC00148
:10268000A39F700D811D1124911DB29F700D811D9E
:102690001124911D0895AA1BBB1B51E107C0AA1F5D
:1026A000BB1FA617B70710F0A61BB70B881F991FF3
:1026B0005A95A9F780959095BC01CD010895EE0F2C
:1026C000FF1F0590F491E02D0994002E083090F042
:1026D000982F872F762F652F542F432F322F2227A5
:1026E0000850F4CF220F331F441F551F661F771F5A
:1026F000881F991F0A95B2F7002D0895F894FFCF0F
:10270000FFFFFFFF00E100000000000000C180812A
:1027100000000000000000B5021504D602CB021C28
:1027200003DA02F8020D0A00504F574552204F4E6F
:1027300000494E50555400444F574E00555000002C
:00000001FF
